{"contracts/Wallet.sol":{"Wallet":{"abi":[{"anonymous":false,"inputs":[],"name":"HandleLayerFailureEV","type":"event"},{"anonymous":false,"inputs":[],"name":"HandleLayerStartedEV","type":"event"},{"anonymous":false,"inputs":[],"name":"HandleLayerSuccessEV","type":"event"},{"anonymous":false,"inputs":[{"indexed":false,"internalType":"uint256","name":"min","type":"uint256"},{"indexed":false,"internalType":"uint256","name":"max","type":"uint256"}],"name":"LogRequirementAmountEV","type":"event"},{"inputs":[],"name":"deltest","outputs":[],"stateMutability":"nonpayable","type":"function"},{"inputs":[],"name":"handleLayerFailure","outputs":[],"stateMutability":"nonpayable","type":"function"},{"inputs":[],"name":"handleLayerStarted","outputs":[],"stateMutability":"nonpayable","type":"function"},{"inputs":[],"name":"handleLayerSuccess","outputs":[],"stateMutability":"nonpayable","type":"function"},{"inputs":[],"name":"oldoldoldtest","outputs":[],"stateMutability":"nonpayable","type":"function"},{"inputs":[],"name":"oldoldtest","outputs":[],"stateMutability":"nonpayable","type":"function"},{"inputs":[],"name":"oldtest","outputs":[],"stateMutability":"nonpayable","type":"function"},{"inputs":[],"name":"test","outputs":[],"stateMutability":"nonpayable","type":"function"},{"inputs":[],"name":"tmptest","outputs":[],"stateMutability":"nonpayable","type":"function"}],"evm":{"bytecode":{"linkReferences":{},"object":"608060405234801561001057600080fd5b506104cb806100206000396000f3fe608060405234801561001057600080fd5b50600436106100935760003560e01c8063aab807e711610066578063aab807e7146100c0578063ca96798d146100ca578063eab58e58146100d4578063f14b60f2146100de578063f8a8fd6d146100e857610093565b80632902e27614610098578063444fcefe146100a257806362a7e3d6146100ac578063a21f30cc146100b6575b600080fd5b6100a06100f2565b005b6100aa610120565b005b6100b4610122565b005b6100be6102e8565b005b6100c8610316565b005b6100d2610334565b005b6100dc610336565b005b6100e66103cd565b005b6100f06103fb565b005b7fb6a36643c6507be894e8784c1e640e93a8a78febb19fdc94e88e26d91ecbccac60405160405180910390a1565b565b6000600867ffffffffffffffff81111561013f5761013e610437565b5b60405190808252806020026020018201604052801561017857816020015b610165610407565b81526020019060019003908161015d5790505b509050610183610407565b808260008151811061019857610197610466565b5b60200260200101819052506101ab610407565b80836001815181106101c0576101bf610466565b5b60200260200101819052506101d3610407565b80846002815181106101e8576101e7610466565b5b60200260200101819052506101fb610407565b6001816000019015159081151581525050808560038151811061022157610220610466565b5b6020026020010181905250610234610407565b808660048151811061024957610248610466565b5b602002602001018190525061025c610407565b6001816000019015159081151581525050808760058151811061028257610281610466565b5b6020026020010181905250610295610407565b80886006815181106102aa576102a9610466565b5b60200260200101819052506102bd610407565b80896007815181106102d2576102d1610466565b5b6020026020010181905250505050505050505050565b7f76379881c153e559ea8f5f3472cad29e0aabb2a7bad53bdcd4a87664d699796460405160405180910390a1565b60006040518060400160405280600081526020016064815250905050565b565b6000600367ffffffffffffffff81111561035357610352610437565b5b60405190808252806020026020018201604052801561038c57816020015b610379610407565b8152602001906001900390816103715790505b509050610397610407565b61039f610407565b6103a7610407565b82846000815181106103bc576103bb610466565b5b602002602001018190525050505050565b7f9c95e4df7afae73945c5552fb375f3d5e749d806615e86042eae016f981736b460405160405180910390a1565b610403610405565b565b565b60405180608001604052806000151581526020016000151581526020016000151581526020016000151581525090565b7f4e487b7100000000000000000000000000000000000000000000000000000000600052604160045260246000fd5b7f4e487b7100000000000000000000000000000000000000000000000000000000600052603260045260246000fdfea2646970667358221220a81fb8b62b1dc1553ac250f25ddde44fdb81311331902bc081fce2ad6ec75aed64736f6c63430008110033","opcodes":"PUSH1 0x80 PUSH1 0x40 MSTORE CALLVALUE DUP1 ISZERO PUSH2 0x10 JUMPI PUSH1 0x0 DUP1 REVERT JUMPDEST POP PUSH2 0x4CB DUP1 PUSH2 0x20 PUSH1 0x0 CODECOPY PUSH1 0x0 RETURN INVALID PUSH1 0x80 PUSH1 0x40 MSTORE CALLVALUE DUP1 ISZERO PUSH2 0x10 JUMPI PUSH1 0x0 DUP1 REVERT JUMPDEST POP PUSH1 0x4 CALLDATASIZE LT PUSH2 0x93 JUMPI PUSH1 0x0 CALLDATALOAD PUSH1 0xE0 SHR DUP1 PUSH4 0xAAB807E7 GT PUSH2 0x66 JUMPI DUP1 PUSH4 0xAAB807E7 EQ PUSH2 0xC0 JUMPI DUP1 PUSH4 0xCA96798D EQ PUSH2 0xCA JUMPI DUP1 PUSH4 0xEAB58E58 EQ PUSH2 0xD4 JUMPI DUP1 PUSH4 0xF14B60F2 EQ PUSH2 0xDE JUMPI DUP1 PUSH4 0xF8A8FD6D EQ PUSH2 0xE8 JUMPI PUSH2 0x93 JUMP JUMPDEST DUP1 PUSH4 0x2902E276 EQ PUSH2 0x98 JUMPI DUP1 PUSH4 0x444FCEFE EQ PUSH2 0xA2 JUMPI DUP1 PUSH4 0x62A7E3D6 EQ PUSH2 0xAC JUMPI DUP1 PUSH4 0xA21F30CC EQ PUSH2 0xB6 JUMPI JUMPDEST PUSH1 0x0 DUP1 REVERT JUMPDEST PUSH2 0xA0 PUSH2 0xF2 JUMP JUMPDEST STOP JUMPDEST PUSH2 0xAA PUSH2 0x120 JUMP JUMPDEST STOP JUMPDEST PUSH2 0xB4 PUSH2 0x122 JUMP JUMPDEST STOP JUMPDEST PUSH2 0xBE PUSH2 0x2E8 JUMP JUMPDEST STOP JUMPDEST PUSH2 0xC8 PUSH2 0x316 JUMP JUMPDEST STOP JUMPDEST PUSH2 0xD2 PUSH2 0x334 JUMP JUMPDEST STOP JUMPDEST PUSH2 0xDC PUSH2 0x336 JUMP JUMPDEST STOP JUMPDEST PUSH2 0xE6 PUSH2 0x3CD JUMP JUMPDEST STOP JUMPDEST PUSH2 0xF0 PUSH2 0x3FB JUMP JUMPDEST STOP JUMPDEST PUSH32 0xB6A36643C6507BE894E8784C1E640E93A8A78FEBB19FDC94E88E26D91ECBCCAC PUSH1 0x40 MLOAD PUSH1 0x40 MLOAD DUP1 SWAP2 SUB SWAP1 LOG1 JUMP JUMPDEST JUMP JUMPDEST PUSH1 0x0 PUSH1 0x8 PUSH8 0xFFFFFFFFFFFFFFFF DUP2 GT ISZERO PUSH2 0x13F JUMPI PUSH2 0x13E PUSH2 0x437 JUMP JUMPDEST JUMPDEST PUSH1 0x40 MLOAD SWAP1 DUP1 DUP3 MSTORE DUP1 PUSH1 0x20 MUL PUSH1 0x20 ADD DUP3 ADD PUSH1 0x40 MSTORE DUP1 ISZERO PUSH2 0x178 JUMPI DUP2 PUSH1 0x20 ADD JUMPDEST PUSH2 0x165 PUSH2 0x407 JUMP JUMPDEST DUP2 MSTORE PUSH1 0x20 ADD SWAP1 PUSH1 0x1 SWAP1 SUB SWAP1 DUP2 PUSH2 0x15D JUMPI SWAP1 POP JUMPDEST POP SWAP1 POP PUSH2 0x183 PUSH2 0x407 JUMP JUMPDEST DUP1 DUP3 PUSH1 0x0 DUP2 MLOAD DUP2 LT PUSH2 0x198 JUMPI PUSH2 0x197 PUSH2 0x466 JUMP JUMPDEST JUMPDEST PUSH1 0x20 MUL PUSH1 0x20 ADD ADD DUP2 SWAP1 MSTORE POP PUSH2 0x1AB PUSH2 0x407 JUMP JUMPDEST DUP1 DUP4 PUSH1 0x1 DUP2 MLOAD DUP2 LT PUSH2 0x1C0 JUMPI PUSH2 0x1BF PUSH2 0x466 JUMP JUMPDEST JUMPDEST PUSH1 0x20 MUL PUSH1 0x20 ADD ADD DUP2 SWAP1 MSTORE POP PUSH2 0x1D3 PUSH2 0x407 JUMP JUMPDEST DUP1 DUP5 PUSH1 0x2 DUP2 MLOAD DUP2 LT PUSH2 0x1E8 JUMPI PUSH2 0x1E7 PUSH2 0x466 JUMP JUMPDEST JUMPDEST PUSH1 0x20 MUL PUSH1 0x20 ADD ADD DUP2 SWAP1 MSTORE POP PUSH2 0x1FB PUSH2 0x407 JUMP JUMPDEST PUSH1 0x1 DUP2 PUSH1 0x0 ADD SWAP1 ISZERO ISZERO SWAP1 DUP2 ISZERO ISZERO DUP2 MSTORE POP POP DUP1 DUP6 PUSH1 0x3 DUP2 MLOAD DUP2 LT PUSH2 0x221 JUMPI PUSH2 0x220 PUSH2 0x466 JUMP JUMPDEST JUMPDEST PUSH1 0x20 MUL PUSH1 0x20 ADD ADD DUP2 SWAP1 MSTORE POP PUSH2 0x234 PUSH2 0x407 JUMP JUMPDEST DUP1 DUP7 PUSH1 0x4 DUP2 MLOAD DUP2 LT PUSH2 0x249 JUMPI PUSH2 0x248 PUSH2 0x466 JUMP JUMPDEST JUMPDEST PUSH1 0x20 MUL PUSH1 0x20 ADD ADD DUP2 SWAP1 MSTORE POP PUSH2 0x25C PUSH2 0x407 JUMP JUMPDEST PUSH1 0x1 DUP2 PUSH1 0x0 ADD SWAP1 ISZERO ISZERO SWAP1 DUP2 ISZERO ISZERO DUP2 MSTORE POP POP DUP1 DUP8 PUSH1 0x5 DUP2 MLOAD DUP2 LT PUSH2 0x282 JUMPI PUSH2 0x281 PUSH2 0x466 JUMP JUMPDEST JUMPDEST PUSH1 0x20 MUL PUSH1 0x20 ADD ADD DUP2 SWAP1 MSTORE POP PUSH2 0x295 PUSH2 0x407 JUMP JUMPDEST DUP1 DUP9 PUSH1 0x6 DUP2 MLOAD DUP2 LT PUSH2 0x2AA JUMPI PUSH2 0x2A9 PUSH2 0x466 JUMP JUMPDEST JUMPDEST PUSH1 0x20 MUL PUSH1 0x20 ADD ADD DUP2 SWAP1 MSTORE POP PUSH2 0x2BD PUSH2 0x407 JUMP JUMPDEST DUP1 DUP10 PUSH1 0x7 DUP2 MLOAD DUP2 LT PUSH2 0x2D2 JUMPI PUSH2 0x2D1 PUSH2 0x466 JUMP JUMPDEST JUMPDEST PUSH1 0x20 MUL PUSH1 0x20 ADD ADD DUP2 SWAP1 MSTORE POP POP POP POP POP POP POP POP POP POP JUMP JUMPDEST PUSH32 0x76379881C153E559EA8F5F3472CAD29E0AABB2A7BAD53BDCD4A87664D6997964 PUSH1 0x40 MLOAD PUSH1 0x40 MLOAD DUP1 SWAP2 SUB SWAP1 LOG1 JUMP JUMPDEST PUSH1 0x0 PUSH1 0x40 MLOAD DUP1 PUSH1 0x40 ADD PUSH1 0x40 MSTORE DUP1 PUSH1 0x0 DUP2 MSTORE PUSH1 0x20 ADD PUSH1 0x64 DUP2 MSTORE POP SWAP1 POP POP JUMP JUMPDEST JUMP JUMPDEST PUSH1 0x0 PUSH1 0x3 PUSH8 0xFFFFFFFFFFFFFFFF DUP2 GT ISZERO PUSH2 0x353 JUMPI PUSH2 0x352 PUSH2 0x437 JUMP JUMPDEST JUMPDEST PUSH1 0x40 MLOAD SWAP1 DUP1 DUP3 MSTORE DUP1 PUSH1 0x20 MUL PUSH1 0x20 ADD DUP3 ADD PUSH1 0x40 MSTORE DUP1 ISZERO PUSH2 0x38C JUMPI DUP2 PUSH1 0x20 ADD JUMPDEST PUSH2 0x379 PUSH2 0x407 JUMP JUMPDEST DUP2 MSTORE PUSH1 0x20 ADD SWAP1 PUSH1 0x1 SWAP1 SUB SWAP1 DUP2 PUSH2 0x371 JUMPI SWAP1 POP JUMPDEST POP SWAP1 POP PUSH2 0x397 PUSH2 0x407 JUMP JUMPDEST PUSH2 0x39F PUSH2 0x407 JUMP JUMPDEST PUSH2 0x3A7 PUSH2 0x407 JUMP JUMPDEST DUP3 DUP5 PUSH1 0x0 DUP2 MLOAD DUP2 LT PUSH2 0x3BC JUMPI PUSH2 0x3BB PUSH2 0x466 JUMP JUMPDEST JUMPDEST PUSH1 0x20 MUL PUSH1 0x20 ADD ADD DUP2 SWAP1 MSTORE POP POP POP POP POP JUMP JUMPDEST PUSH32 0x9C95E4DF7AFAE73945C5552FB375F3D5E749D806615E86042EAE016F981736B4 PUSH1 0x40 MLOAD PUSH1 0x40 MLOAD DUP1 SWAP2 SUB SWAP1 LOG1 JUMP JUMPDEST PUSH2 0x403 PUSH2 0x405 JUMP JUMPDEST JUMP JUMPDEST JUMP JUMPDEST PUSH1 0x40 MLOAD DUP1 PUSH1 0x80 ADD PUSH1 0x40 MSTORE DUP1 PUSH1 0x0 ISZERO ISZERO DUP2 MSTORE PUSH1 0x20 ADD PUSH1 0x0 ISZERO ISZERO DUP2 MSTORE PUSH1 0x20 ADD PUSH1 0x0 ISZERO ISZERO DUP2 MSTORE PUSH1 0x20 ADD PUSH1 0x0 ISZERO ISZERO DUP2 MSTORE POP SWAP1 JUMP JUMPDEST PUSH32 0x4E487B7100000000000000000000000000000000000000000000000000000000 PUSH1 0x0 MSTORE PUSH1 0x41 PUSH1 0x4 MSTORE PUSH1 0x24 PUSH1 0x0 REVERT JUMPDEST PUSH32 0x4E487B7100000000000000000000000000000000000000000000000000000000 PUSH1 0x0 MSTORE PUSH1 0x32 PUSH1 0x4 MSTORE PUSH1 0x24 PUSH1 0x0 REVERT INVALID LOG2 PUSH5 0x6970667358 0x22 SLT KECCAK256 0xA8 0x1F 0xB8 0xB6 0x2B SAR 0xC1 SSTORE GASPRICE 0xC2 POP CALLCODE 0x5D 0xDD 0xE4 0x4F 0xDB DUP2 BALANCE SGT BALANCE SWAP1 0x2B 0xC0 DUP2 0xFC 0xE2 0xAD PUSH15 0xC75AED64736F6C6343000811003300 "},"methodIdentifiers":{"deltest()":"aab807e7","handleLayerFailure()":"2902e276","handleLayerStarted()":"f14b60f2","handleLayerSuccess()":"a21f30cc","oldoldoldtest()":"ca96798d","oldoldtest()":"eab58e58","oldtest()":"444fcefe","test()":"f8a8fd6d","tmptest()":"62a7e3d6"}}}}}