{"contracts/Wallet.sol":{"Wallet":{"abi":[{"anonymous":false,"inputs":[],"name":"HandleLayerFailureEV","type":"event"},{"anonymous":false,"inputs":[],"name":"HandleLayerStartedEV","type":"event"},{"anonymous":false,"inputs":[],"name":"HandleLayerSuccessEV","type":"event"},{"anonymous":false,"inputs":[{"indexed":false,"internalType":"bool","name":"started","type":"bool"},{"indexed":false,"internalType":"bool","name":"success","type":"bool"},{"indexed":false,"internalType":"bool","name":"failure","type":"bool"}],"name":"LogLayerEV","type":"event"},{"inputs":[],"name":"handleLayerFailure","outputs":[],"stateMutability":"nonpayable","type":"function"},{"inputs":[],"name":"handleLayerStarted","outputs":[],"stateMutability":"nonpayable","type":"function"},{"inputs":[],"name":"handleLayerSuccess","outputs":[],"stateMutability":"nonpayable","type":"function"},{"inputs":[],"name":"test","outputs":[],"stateMutability":"nonpayable","type":"function"}],"evm":{"bytecode":{"linkReferences":{},"object":"608060405234801561001057600080fd5b50610243806100206000396000f3fe608060405234801561001057600080fd5b506004361061004c5760003560e01c80632902e27614610051578063a21f30cc1461005b578063f14b60f214610065578063f8a8fd6d1461006f575b600080fd5b610059610079565b005b6100636100a7565b005b61006d6100d5565b005b610077610103565b005b7fb6a36643c6507be894e8784c1e640e93a8a78febb19fdc94e88e26d91ecbccac60405160405180910390a1565b7f76379881c153e559ea8f5f3472cad29e0aabb2a7bad53bdcd4a87664d699796460405160405180910390a1565b7f9c95e4df7afae73945c5552fb375f3d5e749d806615e86042eae016f981736b460405160405180910390a1565b61010b61010e565b50565b610116610194565b61011e610194565b61012781610173565b507f2a5d135428d9e270b08d7840d5c928c327191e0b12206a164d6f75009e4c2391816000015182602001518360400151604051610167939291906101d6565b60405180910390a15090565b61017b610194565b6001826000019015159081151581525050819050919050565b60405180606001604052806000151581526020016000151581526020016000151581525090565b60008115159050919050565b6101d0816101bb565b82525050565b60006060820190506101eb60008301866101c7565b6101f860208301856101c7565b61020560408301846101c7565b94935050505056fea26469706673582212205cc588b48a4d31cc0cef11b0a71af77e3ff758b994722989d61fda367910528b64736f6c63430008110033","opcodes":"PUSH1 0x80 PUSH1 0x40 MSTORE CALLVALUE DUP1 ISZERO PUSH2 0x10 JUMPI PUSH1 0x0 DUP1 REVERT JUMPDEST POP PUSH2 0x243 DUP1 PUSH2 0x20 PUSH1 0x0 CODECOPY PUSH1 0x0 RETURN INVALID PUSH1 0x80 PUSH1 0x40 MSTORE CALLVALUE DUP1 ISZERO PUSH2 0x10 JUMPI PUSH1 0x0 DUP1 REVERT JUMPDEST POP PUSH1 0x4 CALLDATASIZE LT PUSH2 0x4C JUMPI PUSH1 0x0 CALLDATALOAD PUSH1 0xE0 SHR DUP1 PUSH4 0x2902E276 EQ PUSH2 0x51 JUMPI DUP1 PUSH4 0xA21F30CC EQ PUSH2 0x5B JUMPI DUP1 PUSH4 0xF14B60F2 EQ PUSH2 0x65 JUMPI DUP1 PUSH4 0xF8A8FD6D EQ PUSH2 0x6F JUMPI JUMPDEST PUSH1 0x0 DUP1 REVERT JUMPDEST PUSH2 0x59 PUSH2 0x79 JUMP JUMPDEST STOP JUMPDEST PUSH2 0x63 PUSH2 0xA7 JUMP JUMPDEST STOP JUMPDEST PUSH2 0x6D PUSH2 0xD5 JUMP JUMPDEST STOP JUMPDEST PUSH2 0x77 PUSH2 0x103 JUMP JUMPDEST STOP JUMPDEST PUSH32 0xB6A36643C6507BE894E8784C1E640E93A8A78FEBB19FDC94E88E26D91ECBCCAC PUSH1 0x40 MLOAD PUSH1 0x40 MLOAD DUP1 SWAP2 SUB SWAP1 LOG1 JUMP JUMPDEST PUSH32 0x76379881C153E559EA8F5F3472CAD29E0AABB2A7BAD53BDCD4A87664D6997964 PUSH1 0x40 MLOAD PUSH1 0x40 MLOAD DUP1 SWAP2 SUB SWAP1 LOG1 JUMP JUMPDEST PUSH32 0x9C95E4DF7AFAE73945C5552FB375F3D5E749D806615E86042EAE016F981736B4 PUSH1 0x40 MLOAD PUSH1 0x40 MLOAD DUP1 SWAP2 SUB SWAP1 LOG1 JUMP JUMPDEST PUSH2 0x10B PUSH2 0x10E JUMP JUMPDEST POP JUMP JUMPDEST PUSH2 0x116 PUSH2 0x194 JUMP JUMPDEST PUSH2 0x11E PUSH2 0x194 JUMP JUMPDEST PUSH2 0x127 DUP2 PUSH2 0x173 JUMP JUMPDEST POP PUSH32 0x2A5D135428D9E270B08D7840D5C928C327191E0B12206A164D6F75009E4C2391 DUP2 PUSH1 0x0 ADD MLOAD DUP3 PUSH1 0x20 ADD MLOAD DUP4 PUSH1 0x40 ADD MLOAD PUSH1 0x40 MLOAD PUSH2 0x167 SWAP4 SWAP3 SWAP2 SWAP1 PUSH2 0x1D6 JUMP JUMPDEST PUSH1 0x40 MLOAD DUP1 SWAP2 SUB SWAP1 LOG1 POP SWAP1 JUMP JUMPDEST PUSH2 0x17B PUSH2 0x194 JUMP JUMPDEST PUSH1 0x1 DUP3 PUSH1 0x0 ADD SWAP1 ISZERO ISZERO SWAP1 DUP2 ISZERO ISZERO DUP2 MSTORE POP POP DUP2 SWAP1 POP SWAP2 SWAP1 POP JUMP JUMPDEST PUSH1 0x40 MLOAD DUP1 PUSH1 0x60 ADD PUSH1 0x40 MSTORE DUP1 PUSH1 0x0 ISZERO ISZERO DUP2 MSTORE PUSH1 0x20 ADD PUSH1 0x0 ISZERO ISZERO DUP2 MSTORE PUSH1 0x20 ADD PUSH1 0x0 ISZERO ISZERO DUP2 MSTORE POP SWAP1 JUMP JUMPDEST PUSH1 0x0 DUP2 ISZERO ISZERO SWAP1 POP SWAP2 SWAP1 POP JUMP JUMPDEST PUSH2 0x1D0 DUP2 PUSH2 0x1BB JUMP JUMPDEST DUP3 MSTORE POP POP JUMP JUMPDEST PUSH1 0x0 PUSH1 0x60 DUP3 ADD SWAP1 POP PUSH2 0x1EB PUSH1 0x0 DUP4 ADD DUP7 PUSH2 0x1C7 JUMP JUMPDEST PUSH2 0x1F8 PUSH1 0x20 DUP4 ADD DUP6 PUSH2 0x1C7 JUMP JUMPDEST PUSH2 0x205 PUSH1 0x40 DUP4 ADD DUP5 PUSH2 0x1C7 JUMP JUMPDEST SWAP5 SWAP4 POP POP POP POP JUMP INVALID LOG2 PUSH5 0x6970667358 0x22 SLT KECCAK256 0x5C 0xC5 DUP9 0xB4 DUP11 0x4D BALANCE 0xCC 0xC 0xEF GT 0xB0 0xA7 BYTE 0xF7 PUSH31 0x3FF758B994722989D61FDA367910528B64736F6C6343000811003300000000 "},"methodIdentifiers":{"handleLayerFailure()":"2902e276","handleLayerStarted()":"f14b60f2","handleLayerSuccess()":"a21f30cc","test()":"f8a8fd6d"}}}}}