{"contracts/Wallet.sol":{"Wallet":{"abi":[{"anonymous":false,"inputs":[],"name":"HandleLayerFailureEV","type":"event"},{"anonymous":false,"inputs":[],"name":"HandleLayerStartedEV","type":"event"},{"anonymous":false,"inputs":[],"name":"HandleLayerSuccessEV","type":"event"},{"inputs":[],"name":"handleLayerFailure","outputs":[],"stateMutability":"nonpayable","type":"function"},{"inputs":[],"name":"handleLayerStarted","outputs":[],"stateMutability":"nonpayable","type":"function"},{"inputs":[],"name":"handleLayerSuccess","outputs":[],"stateMutability":"nonpayable","type":"function"},{"inputs":[],"name":"oldoldtest","outputs":[],"stateMutability":"nonpayable","type":"function"},{"inputs":[],"name":"oldtest","outputs":[],"stateMutability":"nonpayable","type":"function"},{"inputs":[],"name":"test","outputs":[],"stateMutability":"nonpayable","type":"function"}],"evm":{"bytecode":{"linkReferences":{},"object":"608060405234801561001057600080fd5b50610350806100206000396000f3fe608060405234801561001057600080fd5b50600436106100625760003560e01c80632902e27614610067578063444fcefe14610071578063a21f30cc1461007b578063eab58e5814610085578063f14b60f21461008f578063f8a8fd6d14610099575b600080fd5b61006f6100a3565b005b6100796100d1565b005b6100836100d3565b005b61008d610101565b005b610097610198565b005b6100a16101c6565b005b7fb6a36643c6507be894e8784c1e640e93a8a78febb19fdc94e88e26d91ecbccac60405160405180910390a1565b565b7f76379881c153e559ea8f5f3472cad29e0aabb2a7bad53bdcd4a87664d699796460405160405180910390a1565b6000600367ffffffffffffffff81111561011e5761011d6102bc565b5b60405190808252806020026020018201604052801561015757816020015b61014461028c565b81526020019060019003908161013c5790505b50905061016261028c565b61016a61028c565b61017261028c565b8284600081518110610187576101866102eb565b5b602002602001018190525050505050565b7f9c95e4df7afae73945c5552fb375f3d5e749d806615e86042eae016f981736b460405160405180910390a1565b6101ce61028c565b6101d661028c565b6101de61028c565b6101e661028c565b60018160000190151590811515815250506101ff61028c565b61020761028c565b600181600001901515908115158152505061022061028c565b61022861028c565b6000600867ffffffffffffffff811115610245576102446102bc565b5b60405190808252806020026020018201604052801561027e57816020015b61026b61028c565b8152602001906001900390816102635790505b509050505050505050505050565b60405180608001604052806000151581526020016000151581526020016000151581526020016000151581525090565b7f4e487b7100000000000000000000000000000000000000000000000000000000600052604160045260246000fd5b7f4e487b7100000000000000000000000000000000000000000000000000000000600052603260045260246000fdfea26469706673582212204e4153e1f76fb2c3a1d1509b84dcc8db8d40a47146b410b4209a6fe906cddb8764736f6c63430008110033","opcodes":"PUSH1 0x80 PUSH1 0x40 MSTORE CALLVALUE DUP1 ISZERO PUSH2 0x10 JUMPI PUSH1 0x0 DUP1 REVERT JUMPDEST POP PUSH2 0x350 DUP1 PUSH2 0x20 PUSH1 0x0 CODECOPY PUSH1 0x0 RETURN INVALID PUSH1 0x80 PUSH1 0x40 MSTORE CALLVALUE DUP1 ISZERO PUSH2 0x10 JUMPI PUSH1 0x0 DUP1 REVERT JUMPDEST POP PUSH1 0x4 CALLDATASIZE LT PUSH2 0x62 JUMPI PUSH1 0x0 CALLDATALOAD PUSH1 0xE0 SHR DUP1 PUSH4 0x2902E276 EQ PUSH2 0x67 JUMPI DUP1 PUSH4 0x444FCEFE EQ PUSH2 0x71 JUMPI DUP1 PUSH4 0xA21F30CC EQ PUSH2 0x7B JUMPI DUP1 PUSH4 0xEAB58E58 EQ PUSH2 0x85 JUMPI DUP1 PUSH4 0xF14B60F2 EQ PUSH2 0x8F JUMPI DUP1 PUSH4 0xF8A8FD6D EQ PUSH2 0x99 JUMPI JUMPDEST PUSH1 0x0 DUP1 REVERT JUMPDEST PUSH2 0x6F PUSH2 0xA3 JUMP JUMPDEST STOP JUMPDEST PUSH2 0x79 PUSH2 0xD1 JUMP JUMPDEST STOP JUMPDEST PUSH2 0x83 PUSH2 0xD3 JUMP JUMPDEST STOP JUMPDEST PUSH2 0x8D PUSH2 0x101 JUMP JUMPDEST STOP JUMPDEST PUSH2 0x97 PUSH2 0x198 JUMP JUMPDEST STOP JUMPDEST PUSH2 0xA1 PUSH2 0x1C6 JUMP JUMPDEST STOP JUMPDEST PUSH32 0xB6A36643C6507BE894E8784C1E640E93A8A78FEBB19FDC94E88E26D91ECBCCAC PUSH1 0x40 MLOAD PUSH1 0x40 MLOAD DUP1 SWAP2 SUB SWAP1 LOG1 JUMP JUMPDEST JUMP JUMPDEST PUSH32 0x76379881C153E559EA8F5F3472CAD29E0AABB2A7BAD53BDCD4A87664D6997964 PUSH1 0x40 MLOAD PUSH1 0x40 MLOAD DUP1 SWAP2 SUB SWAP1 LOG1 JUMP JUMPDEST PUSH1 0x0 PUSH1 0x3 PUSH8 0xFFFFFFFFFFFFFFFF DUP2 GT ISZERO PUSH2 0x11E JUMPI PUSH2 0x11D PUSH2 0x2BC JUMP JUMPDEST JUMPDEST PUSH1 0x40 MLOAD SWAP1 DUP1 DUP3 MSTORE DUP1 PUSH1 0x20 MUL PUSH1 0x20 ADD DUP3 ADD PUSH1 0x40 MSTORE DUP1 ISZERO PUSH2 0x157 JUMPI DUP2 PUSH1 0x20 ADD JUMPDEST PUSH2 0x144 PUSH2 0x28C JUMP JUMPDEST DUP2 MSTORE PUSH1 0x20 ADD SWAP1 PUSH1 0x1 SWAP1 SUB SWAP1 DUP2 PUSH2 0x13C JUMPI SWAP1 POP JUMPDEST POP SWAP1 POP PUSH2 0x162 PUSH2 0x28C JUMP JUMPDEST PUSH2 0x16A PUSH2 0x28C JUMP JUMPDEST PUSH2 0x172 PUSH2 0x28C JUMP JUMPDEST DUP3 DUP5 PUSH1 0x0 DUP2 MLOAD DUP2 LT PUSH2 0x187 JUMPI PUSH2 0x186 PUSH2 0x2EB JUMP JUMPDEST JUMPDEST PUSH1 0x20 MUL PUSH1 0x20 ADD ADD DUP2 SWAP1 MSTORE POP POP POP POP POP JUMP JUMPDEST PUSH32 0x9C95E4DF7AFAE73945C5552FB375F3D5E749D806615E86042EAE016F981736B4 PUSH1 0x40 MLOAD PUSH1 0x40 MLOAD DUP1 SWAP2 SUB SWAP1 LOG1 JUMP JUMPDEST PUSH2 0x1CE PUSH2 0x28C JUMP JUMPDEST PUSH2 0x1D6 PUSH2 0x28C JUMP JUMPDEST PUSH2 0x1DE PUSH2 0x28C JUMP JUMPDEST PUSH2 0x1E6 PUSH2 0x28C JUMP JUMPDEST PUSH1 0x1 DUP2 PUSH1 0x0 ADD SWAP1 ISZERO ISZERO SWAP1 DUP2 ISZERO ISZERO DUP2 MSTORE POP POP PUSH2 0x1FF PUSH2 0x28C JUMP JUMPDEST PUSH2 0x207 PUSH2 0x28C JUMP JUMPDEST PUSH1 0x1 DUP2 PUSH1 0x0 ADD SWAP1 ISZERO ISZERO SWAP1 DUP2 ISZERO ISZERO DUP2 MSTORE POP POP PUSH2 0x220 PUSH2 0x28C JUMP JUMPDEST PUSH2 0x228 PUSH2 0x28C JUMP JUMPDEST PUSH1 0x0 PUSH1 0x8 PUSH8 0xFFFFFFFFFFFFFFFF DUP2 GT ISZERO PUSH2 0x245 JUMPI PUSH2 0x244 PUSH2 0x2BC JUMP JUMPDEST JUMPDEST PUSH1 0x40 MLOAD SWAP1 DUP1 DUP3 MSTORE DUP1 PUSH1 0x20 MUL PUSH1 0x20 ADD DUP3 ADD PUSH1 0x40 MSTORE DUP1 ISZERO PUSH2 0x27E JUMPI DUP2 PUSH1 0x20 ADD JUMPDEST PUSH2 0x26B PUSH2 0x28C JUMP JUMPDEST DUP2 MSTORE PUSH1 0x20 ADD SWAP1 PUSH1 0x1 SWAP1 SUB SWAP1 DUP2 PUSH2 0x263 JUMPI SWAP1 POP JUMPDEST POP SWAP1 POP POP POP POP POP POP POP POP POP POP JUMP JUMPDEST PUSH1 0x40 MLOAD DUP1 PUSH1 0x80 ADD PUSH1 0x40 MSTORE DUP1 PUSH1 0x0 ISZERO ISZERO DUP2 MSTORE PUSH1 0x20 ADD PUSH1 0x0 ISZERO ISZERO DUP2 MSTORE PUSH1 0x20 ADD PUSH1 0x0 ISZERO ISZERO DUP2 MSTORE PUSH1 0x20 ADD PUSH1 0x0 ISZERO ISZERO DUP2 MSTORE POP SWAP1 JUMP JUMPDEST PUSH32 0x4E487B7100000000000000000000000000000000000000000000000000000000 PUSH1 0x0 MSTORE PUSH1 0x41 PUSH1 0x4 MSTORE PUSH1 0x24 PUSH1 0x0 REVERT JUMPDEST PUSH32 0x4E487B7100000000000000000000000000000000000000000000000000000000 PUSH1 0x0 MSTORE PUSH1 0x32 PUSH1 0x4 MSTORE PUSH1 0x24 PUSH1 0x0 REVERT INVALID LOG2 PUSH5 0x6970667358 0x22 SLT KECCAK256 0x4E COINBASE MSTORE8 0xE1 0xF7 PUSH16 0xB2C3A1D1509B84DCC8DB8D40A47146B4 LT 0xB4 KECCAK256 SWAP11 PUSH16 0xE906CDDB8764736F6C63430008110033 "},"methodIdentifiers":{"handleLayerFailure()":"2902e276","handleLayerStarted()":"f14b60f2","handleLayerSuccess()":"a21f30cc","oldoldtest()":"eab58e58","oldtest()":"444fcefe","test()":"f8a8fd6d"}}}}}