{"contracts/Wallet.sol":{"Wallet":{"abi":[{"anonymous":false,"inputs":[],"name":"HandleLayerFailureEV","type":"event"},{"anonymous":false,"inputs":[],"name":"HandleLayerStartedEV","type":"event"},{"anonymous":false,"inputs":[],"name":"HandleLayerSuccessEV","type":"event"},{"anonymous":false,"inputs":[{"indexed":false,"internalType":"uint256","name":"arrLength","type":"uint256"}],"name":"LogLength","type":"event"},{"inputs":[],"name":"handleLayerFailure","outputs":[],"stateMutability":"nonpayable","type":"function"},{"inputs":[],"name":"handleLayerStarted","outputs":[],"stateMutability":"nonpayable","type":"function"},{"inputs":[],"name":"handleLayerSuccess","outputs":[],"stateMutability":"nonpayable","type":"function"},{"inputs":[],"name":"oldtest","outputs":[],"stateMutability":"nonpayable","type":"function"},{"inputs":[],"name":"test","outputs":[],"stateMutability":"nonpayable","type":"function"}],"evm":{"bytecode":{"linkReferences":{},"object":"608060405234801561001057600080fd5b5061026c806100206000396000f3fe608060405234801561001057600080fd5b50600436106100575760003560e01c80632902e2761461005c578063444fcefe14610066578063a21f30cc14610070578063f14b60f21461007a578063f8a8fd6d14610084575b600080fd5b61006461008e565b005b61006e6100bc565b005b6100786100be565b005b6100826100ec565b005b61008c61011a565b005b7fb6a36643c6507be894e8784c1e640e93a8a78febb19fdc94e88e26d91ecbccac60405160405180910390a1565b565b7f76379881c153e559ea8f5f3472cad29e0aabb2a7bad53bdcd4a87664d699796460405160405180910390a1565b7f9c95e4df7afae73945c5552fb375f3d5e749d806615e86042eae016f981736b460405160405180910390a1565b6000600367ffffffffffffffff811115610137576101366101d8565b5b60405190808252806020026020018201604052801561017057816020015b61015d6101b1565b8152602001906001900390816101555790505b50905061017b6101b1565b6101836101b1565b61018b6101b1565b82846000815181106101a05761019f610207565b5b602002602001018190525050505050565b60405180606001604052806000151581526020016000151581526020016000151581525090565b7f4e487b7100000000000000000000000000000000000000000000000000000000600052604160045260246000fd5b7f4e487b7100000000000000000000000000000000000000000000000000000000600052603260045260246000fdfea2646970667358221220eff84e16aa8fe0a904703679a62d77826f50cd308300b7c3ef11c1c361673ecc64736f6c63430008110033","opcodes":"PUSH1 0x80 PUSH1 0x40 MSTORE CALLVALUE DUP1 ISZERO PUSH2 0x10 JUMPI PUSH1 0x0 DUP1 REVERT JUMPDEST POP PUSH2 0x26C DUP1 PUSH2 0x20 PUSH1 0x0 CODECOPY PUSH1 0x0 RETURN INVALID PUSH1 0x80 PUSH1 0x40 MSTORE CALLVALUE DUP1 ISZERO PUSH2 0x10 JUMPI PUSH1 0x0 DUP1 REVERT JUMPDEST POP PUSH1 0x4 CALLDATASIZE LT PUSH2 0x57 JUMPI PUSH1 0x0 CALLDATALOAD PUSH1 0xE0 SHR DUP1 PUSH4 0x2902E276 EQ PUSH2 0x5C JUMPI DUP1 PUSH4 0x444FCEFE EQ PUSH2 0x66 JUMPI DUP1 PUSH4 0xA21F30CC EQ PUSH2 0x70 JUMPI DUP1 PUSH4 0xF14B60F2 EQ PUSH2 0x7A JUMPI DUP1 PUSH4 0xF8A8FD6D EQ PUSH2 0x84 JUMPI JUMPDEST PUSH1 0x0 DUP1 REVERT JUMPDEST PUSH2 0x64 PUSH2 0x8E JUMP JUMPDEST STOP JUMPDEST PUSH2 0x6E PUSH2 0xBC JUMP JUMPDEST STOP JUMPDEST PUSH2 0x78 PUSH2 0xBE JUMP JUMPDEST STOP JUMPDEST PUSH2 0x82 PUSH2 0xEC JUMP JUMPDEST STOP JUMPDEST PUSH2 0x8C PUSH2 0x11A JUMP JUMPDEST STOP JUMPDEST PUSH32 0xB6A36643C6507BE894E8784C1E640E93A8A78FEBB19FDC94E88E26D91ECBCCAC PUSH1 0x40 MLOAD PUSH1 0x40 MLOAD DUP1 SWAP2 SUB SWAP1 LOG1 JUMP JUMPDEST JUMP JUMPDEST PUSH32 0x76379881C153E559EA8F5F3472CAD29E0AABB2A7BAD53BDCD4A87664D6997964 PUSH1 0x40 MLOAD PUSH1 0x40 MLOAD DUP1 SWAP2 SUB SWAP1 LOG1 JUMP JUMPDEST PUSH32 0x9C95E4DF7AFAE73945C5552FB375F3D5E749D806615E86042EAE016F981736B4 PUSH1 0x40 MLOAD PUSH1 0x40 MLOAD DUP1 SWAP2 SUB SWAP1 LOG1 JUMP JUMPDEST PUSH1 0x0 PUSH1 0x3 PUSH8 0xFFFFFFFFFFFFFFFF DUP2 GT ISZERO PUSH2 0x137 JUMPI PUSH2 0x136 PUSH2 0x1D8 JUMP JUMPDEST JUMPDEST PUSH1 0x40 MLOAD SWAP1 DUP1 DUP3 MSTORE DUP1 PUSH1 0x20 MUL PUSH1 0x20 ADD DUP3 ADD PUSH1 0x40 MSTORE DUP1 ISZERO PUSH2 0x170 JUMPI DUP2 PUSH1 0x20 ADD JUMPDEST PUSH2 0x15D PUSH2 0x1B1 JUMP JUMPDEST DUP2 MSTORE PUSH1 0x20 ADD SWAP1 PUSH1 0x1 SWAP1 SUB SWAP1 DUP2 PUSH2 0x155 JUMPI SWAP1 POP JUMPDEST POP SWAP1 POP PUSH2 0x17B PUSH2 0x1B1 JUMP JUMPDEST PUSH2 0x183 PUSH2 0x1B1 JUMP JUMPDEST PUSH2 0x18B PUSH2 0x1B1 JUMP JUMPDEST DUP3 DUP5 PUSH1 0x0 DUP2 MLOAD DUP2 LT PUSH2 0x1A0 JUMPI PUSH2 0x19F PUSH2 0x207 JUMP JUMPDEST JUMPDEST PUSH1 0x20 MUL PUSH1 0x20 ADD ADD DUP2 SWAP1 MSTORE POP POP POP POP POP JUMP JUMPDEST PUSH1 0x40 MLOAD DUP1 PUSH1 0x60 ADD PUSH1 0x40 MSTORE DUP1 PUSH1 0x0 ISZERO ISZERO DUP2 MSTORE PUSH1 0x20 ADD PUSH1 0x0 ISZERO ISZERO DUP2 MSTORE PUSH1 0x20 ADD PUSH1 0x0 ISZERO ISZERO DUP2 MSTORE POP SWAP1 JUMP JUMPDEST PUSH32 0x4E487B7100000000000000000000000000000000000000000000000000000000 PUSH1 0x0 MSTORE PUSH1 0x41 PUSH1 0x4 MSTORE PUSH1 0x24 PUSH1 0x0 REVERT JUMPDEST PUSH32 0x4E487B7100000000000000000000000000000000000000000000000000000000 PUSH1 0x0 MSTORE PUSH1 0x32 PUSH1 0x4 MSTORE PUSH1 0x24 PUSH1 0x0 REVERT INVALID LOG2 PUSH5 0x6970667358 0x22 SLT KECCAK256 0xEF 0xF8 0x4E AND 0xAA DUP16 0xE0 0xA9 DIV PUSH17 0x3679A62D77826F50CD308300B7C3EF11C1 0xC3 PUSH2 0x673E 0xCC PUSH5 0x736F6C6343 STOP ADDMOD GT STOP CALLER "},"methodIdentifiers":{"handleLayerFailure()":"2902e276","handleLayerStarted()":"f14b60f2","handleLayerSuccess()":"a21f30cc","oldtest()":"444fcefe","test()":"f8a8fd6d"}}}}}