{
  "_format": "hh-sol-artifact-1",
  "contractName": "Wallet",
  "sourceName": "contracts/Wallet.sol",
  "abi": [
    {
      "anonymous": false,
      "inputs": [],
      "name": "HandleLayerFailureEV",
      "type": "event"
    },
    {
      "anonymous": false,
      "inputs": [],
      "name": "HandleLayerStartedEV",
      "type": "event"
    },
    {
      "anonymous": false,
      "inputs": [],
      "name": "HandleLayerSuccessEV",
      "type": "event"
    },
    {
      "anonymous": false,
      "inputs": [
        {
          "indexed": false,
          "internalType": "uint256",
          "name": "min",
          "type": "uint256"
        },
        {
          "indexed": false,
          "internalType": "uint256",
          "name": "max",
          "type": "uint256"
        }
      ],
      "name": "LogRequirementAmountEV",
      "type": "event"
    },
    {
      "inputs": [],
      "name": "deltest",
      "outputs": [],
      "stateMutability": "nonpayable",
      "type": "function"
    },
    {
      "inputs": [],
      "name": "handleLayerFailure",
      "outputs": [],
      "stateMutability": "nonpayable",
      "type": "function"
    },
    {
      "inputs": [],
      "name": "handleLayerStarted",
      "outputs": [],
      "stateMutability": "nonpayable",
      "type": "function"
    },
    {
      "inputs": [],
      "name": "handleLayerSuccess",
      "outputs": [],
      "stateMutability": "nonpayable",
      "type": "function"
    },
    {
      "inputs": [],
      "name": "oldoldoldtest",
      "outputs": [],
      "stateMutability": "nonpayable",
      "type": "function"
    },
    {
      "inputs": [],
      "name": "oldoldtest",
      "outputs": [],
      "stateMutability": "nonpayable",
      "type": "function"
    },
    {
      "inputs": [],
      "name": "oldtest",
      "outputs": [],
      "stateMutability": "nonpayable",
      "type": "function"
    },
    {
      "inputs": [],
      "name": "test",
      "outputs": [],
      "stateMutability": "nonpayable",
      "type": "function"
    },
    {
      "inputs": [],
      "name": "tmptest",
      "outputs": [],
      "stateMutability": "nonpayable",
      "type": "function"
    }
  ],
  "bytecode": "0x608060405234801561001057600080fd5b506104cb806100206000396000f3fe608060405234801561001057600080fd5b50600436106100935760003560e01c8063aab807e711610066578063aab807e7146100c0578063ca96798d146100ca578063eab58e58146100d4578063f14b60f2146100de578063f8a8fd6d146100e857610093565b80632902e27614610098578063444fcefe146100a257806362a7e3d6146100ac578063a21f30cc146100b6575b600080fd5b6100a06100f2565b005b6100aa610120565b005b6100b4610122565b005b6100be6102e8565b005b6100c8610316565b005b6100d2610334565b005b6100dc610336565b005b6100e66103cd565b005b6100f06103fb565b005b7fb6a36643c6507be894e8784c1e640e93a8a78febb19fdc94e88e26d91ecbccac60405160405180910390a1565b565b6000600867ffffffffffffffff81111561013f5761013e610437565b5b60405190808252806020026020018201604052801561017857816020015b610165610407565b81526020019060019003908161015d5790505b509050610183610407565b808260008151811061019857610197610466565b5b60200260200101819052506101ab610407565b80836001815181106101c0576101bf610466565b5b60200260200101819052506101d3610407565b80846002815181106101e8576101e7610466565b5b60200260200101819052506101fb610407565b6001816000019015159081151581525050808560038151811061022157610220610466565b5b6020026020010181905250610234610407565b808660048151811061024957610248610466565b5b602002602001018190525061025c610407565b6001816000019015159081151581525050808760058151811061028257610281610466565b5b6020026020010181905250610295610407565b80886006815181106102aa576102a9610466565b5b60200260200101819052506102bd610407565b80896007815181106102d2576102d1610466565b5b6020026020010181905250505050505050505050565b7f76379881c153e559ea8f5f3472cad29e0aabb2a7bad53bdcd4a87664d699796460405160405180910390a1565b60006040518060400160405280600081526020016064815250905050565b565b6000600367ffffffffffffffff81111561035357610352610437565b5b60405190808252806020026020018201604052801561038c57816020015b610379610407565b8152602001906001900390816103715790505b509050610397610407565b61039f610407565b6103a7610407565b82846000815181106103bc576103bb610466565b5b602002602001018190525050505050565b7f9c95e4df7afae73945c5552fb375f3d5e749d806615e86042eae016f981736b460405160405180910390a1565b610403610405565b565b565b60405180608001604052806000151581526020016000151581526020016000151581526020016000151581525090565b7f4e487b7100000000000000000000000000000000000000000000000000000000600052604160045260246000fd5b7f4e487b7100000000000000000000000000000000000000000000000000000000600052603260045260246000fdfea2646970667358221220a81fb8b62b1dc1553ac250f25ddde44fdb81311331902bc081fce2ad6ec75aed64736f6c63430008110033",
  "linkReferences": {},
  "deployedLinkReferences": {}
}