{
  "_format": "hh-sol-artifact-1",
  "contractName": "Wallet",
  "sourceName": "contracts/Wallet.sol",
  "abi": [
    {
      "anonymous": false,
      "inputs": [],
      "name": "HandleLayerFailureEV",
      "type": "event"
    },
    {
      "anonymous": false,
      "inputs": [],
      "name": "HandleLayerStartedEV",
      "type": "event"
    },
    {
      "anonymous": false,
      "inputs": [],
      "name": "HandleLayerSuccessEV",
      "type": "event"
    },
    {
      "anonymous": false,
      "inputs": [
        {
          "indexed": false,
          "internalType": "bool",
          "name": "started",
          "type": "bool"
        },
        {
          "indexed": false,
          "internalType": "bool",
          "name": "success",
          "type": "bool"
        },
        {
          "indexed": false,
          "internalType": "bool",
          "name": "failure",
          "type": "bool"
        }
      ],
      "name": "LogLayerEV",
      "type": "event"
    },
    {
      "inputs": [],
      "name": "handleLayerFailure",
      "outputs": [],
      "stateMutability": "nonpayable",
      "type": "function"
    },
    {
      "inputs": [],
      "name": "handleLayerStarted",
      "outputs": [],
      "stateMutability": "nonpayable",
      "type": "function"
    },
    {
      "inputs": [],
      "name": "handleLayerSuccess",
      "outputs": [],
      "stateMutability": "nonpayable",
      "type": "function"
    },
    {
      "inputs": [],
      "name": "test",
      "outputs": [],
      "stateMutability": "nonpayable",
      "type": "function"
    }
  ],
  "bytecode": "0x608060405234801561001057600080fd5b50610243806100206000396000f3fe608060405234801561001057600080fd5b506004361061004c5760003560e01c80632902e27614610051578063a21f30cc1461005b578063f14b60f214610065578063f8a8fd6d1461006f575b600080fd5b610059610079565b005b6100636100a7565b005b61006d6100d5565b005b610077610103565b005b7fb6a36643c6507be894e8784c1e640e93a8a78febb19fdc94e88e26d91ecbccac60405160405180910390a1565b7f76379881c153e559ea8f5f3472cad29e0aabb2a7bad53bdcd4a87664d699796460405160405180910390a1565b7f9c95e4df7afae73945c5552fb375f3d5e749d806615e86042eae016f981736b460405160405180910390a1565b61010b61010e565b50565b610116610194565b61011e610194565b61012781610173565b507f2a5d135428d9e270b08d7840d5c928c327191e0b12206a164d6f75009e4c2391816000015182602001518360400151604051610167939291906101d6565b60405180910390a15090565b61017b610194565b6001826000019015159081151581525050819050919050565b60405180606001604052806000151581526020016000151581526020016000151581525090565b60008115159050919050565b6101d0816101bb565b82525050565b60006060820190506101eb60008301866101c7565b6101f860208301856101c7565b61020560408301846101c7565b94935050505056fea26469706673582212205cc588b48a4d31cc0cef11b0a71af77e3ff758b994722989d61fda367910528b64736f6c63430008110033",
  "linkReferences": {},
  "deployedLinkReferences": {}
}